:100000000C94EC010C94C5020C94F6020C9427039A
:100010000C9458030C9489030C94BA030C94EB03CE
:100020000C941C040C941D020C941D020C941D02D3
:100030000C941D020C947C0D0C941D020C941D025A
:100040000C941D020C941D020C941D020C941D02B4
:100050000C941D020C941D020C941D020C944D0472
:100060000C941D020C9441080C9415090C941D026B
:100070000C941D020C941D020C941D020C941D0284
:100080000C941D020C941D020C941D020C941D0274
:100090000C946E080C9454090C941D020C941D02CF
:1000A0000C941D020C941D020C941D020C941D0254
:1000B0000C941D020C941D020C941D020C941D0244
:1000C0000C941D020C941D020C941D020C949B08B0
:1000D0000C9493090C941D020C94C8080C94D2093A
:1000E0000C941D020200002100240027002A002D8C
:1000F000003000330001010000040107010A010083
:10010000002200250028002B002E003100340002C0
:10011000010000050108010B01000020002300265A
:100120000029002C002F003200000100000301060E
:10013000010901050505050705080808080202026E
:10014000020A0A0808040404040101010101010172
:10015000010303030303030303040707070C0C0C49
:100160000C0C0C0C0C020202020606060606060621
:10017000060B0B0B0B0B0B0B0B01021020200808BE
:1001800010204010204080020102010804020101F9
:1001900002040810204080804020100804020180E2
:1001A0000402018040201008040201080402010139
:1001B0000204081020408001020408102040800042
:1001C00000090A02080B0C0D0706030401000000D9
:1001D000000000000000000000000000000000001F
:1001E000000000000000000000000011100F0000DF
:1001F00000000000000000000000000000000000FF
:100200000000000000646973636F6E6E6563740ABA
:1002100000666F756E6420706F737369626C652021
:100220006465766963652E20737769746863696EA7
:100230006720746F2073657269616C206D6F6465EF
:100240000A00666F756E6420616E64726F69642067
:1002500061636573736F7279206465766963650A9B
:10026000000A44657669636520646573637269702A
:10027000746F722063616E6E6F74206265207265A8
:10028000747269657665642E20547279696E672090
:10029000616761696E0A0052657175657374696E94
:1002A000672064657669636520646573637269704D
:1002B000746F722E0A000A44657669636520616472
:1002C000647265737365642E2E2E200043616E2761
:1002D000742073657420636F6E66696720746F2085
:1002E000310A0063616E27742066696E6420616361
:1002F000636573736F727920656E64706F696E7475
:100300007300756E6B6F776E20646573632074790C
:1003100070652000696E746572666163652064654E
:1003200073630A00636F6E66696720646573630AAE
:100330000043616E27742067657420636F6E666981
:10034000672064657363726970746F720A00636F0B
:100350006E6669672064657363726970746F72207A
:10036000746F6F206C617267650A0043616E277459
:100370002067657420636F6E6669672064657363C8
:10038000726970746F72206C656E6774680A0063BE
:100390006F756C64206E6F74207265616420646593
:1003A000766963652070726F746F636F6C20766519
:1003B0007273696F6E0A0064657669636520737590
:1003C00070706F7274732070726F74636F6C203111
:1003D0000A008F0AA80B861A11241FBECFEFD1E2A4
:1003E000DEBFCDBF00E00CBF13E0A0E0B2E0E8E864
:1003F000F8E300E00BBF02C007900D92AE32B107E8
:10040000D9F717E0AEE2B3E001C01D92AB3AB107F5
:10041000E1F713E0C8EDD3E000E006C02297010940
:10042000FE010BBF0E940B1BC23DD10780E00807F5
:10043000A9F70E94DC0D0C94421C0C94000088303B
:1004400008F076C0E82FF0E0EE0FFF1FE25DFC4FF2
:1004500071836083843029F1853038F4823069F00B
:10046000833098F48130B9F53EC0863009F447C036
:10047000863020F1873079F54FC0809169008C7FFC
:10048000842B80936900E89A089580916900440F55
:10049000551F440F551F837F842B80936900E99A71
:1004A00008958091690074E0440F551F7A95E1F733
:1004B0008F7C842B80936900EA9A0895809169006B
:1004C00066E0440F551F6A95E1F78F73842B809384
:1004D0006900EB9A089580916A008C7F842B809349
:1004E0006A00EC9A089580916A00440F551F440FEA
:1004F000551F837F842B80936A00ED9A0895809125
:100500006A0024E0440F551F2A95E1F78F7C842B65
:1005100080936A00EE9A089580916A0096E0440FF5
:10052000551F9A95E1F78F73842B80936A00EF9A99
:100530000895883048F58430A1F0853038F4823051
:1005400061F0833060F4813081F411C0863089F02D
:10055000863048F0873049F40EC0E8980DC0E9981D
:100560000BC0EA9809C0EB9807C0EC9805C0ED985D
:1005700003C0EE9801C0EF98E82FF0E0EE0FFF1FE8
:10058000E25DFC4F1182108208951F920F920FB608
:100590000F920BB60F9211242F933F934F935F93BB
:1005A0006F937F938F939F93AF93BF93EF93FF933B
:1005B0008091320390913303009729F0E091320348
:1005C000F09133031995FF91EF91BF91AF919F91F6
:1005D0008F917F916F915F914F913F912F910F90EC
:1005E0000BBE0F900FBE0F901F9018951F920F9289
:1005F0000FB60F920BB60F9211242F933F934F9388
:100600005F936F937F938F939F93AF93BF93EF937A
:10061000FF938091340390913503009729F0E09186
:100620003403F09135031995FF91EF91BF91AF918C
:100630009F918F917F916F915F914F913F912F91FA
:100640000F900BBE0F900FBE0F901F9018951F922A
:100650000F920FB60F920BB60F9211242F933F9368
:100660004F935F936F937F938F939F93AF93BF93BA
:10067000EF93FF938091360390913703009729F011
:10068000E0913603F09137031995FF91EF91BF91F7
:10069000AF919F918F917F916F915F914F913F911A
:1006A0002F910F900BBE0F900FBE0F901F901895BB
:1006B0001F920F920FB60F920BB60F9211242F9329
:1006C0003F934F935F936F937F938F939F93AF93DA
:1006D000BF93EF93FF938091380390913903009774
:1006E00029F0E0913803F09139031995FF91EF91CA
:1006F000BF91AF919F918F917F916F915F914F913A
:100700003F912F910F900BBE0F900FBE0F901F9037
:1007100018951F920F920FB60F920BB60F921124DD
:100720002F933F934F935F936F937F938F939F93F9
:10073000AF93BF93EF93FF9380912E0390912F037C
:10074000009729F0E0912E03F0912F031995FF9166
:10075000EF91BF91AF919F918F917F916F915F9139
:100760004F913F912F910F900BBE0F900FBE0F90A6
:100770001F9018951F920F920FB60F920BB60F9203
:1007800011242F933F934F935F936F937F938F9396
:100790009F93AF93BF93EF93FF938091300390911A
:1007A0003103009729F0E0913003F091310319955E
:1007B000FF91EF91BF91AF919F918F917F916F9139
:1007C0005F914F913F912F910F900BBE0F900FBEF5
:1007D0000F901F9018951F920F920FB60F920BB6A5
:1007E0000F9211242F933F934F935F936F937F93B7
:1007F0008F939F93AF93BF93EF93FF9380913A03AF
:1008000090913B03009729F0E0913A03F0913B036C
:100810001995FF91EF91BF91AF919F918F917F912A
:100820006F915F914F913F912F910F900BBE0F9061
:100830000FBE0F901F9018951F920F920FB60F9238
:100840000BB60F9211242F933F934F935F936F93A7
:100850007F938F939F93AF93BF93EF93FF93809179
:100860003C0390913D03009729F0E0913C03F09107
:100870003D031995FF91EF91BF91AF919F918F919A
:100880007F916F915F914F913F912F910F900BBE90
:100890000F900FBE0F901F9018951F920F920FB6DA
:1008A0000F9211242F933F938F939F93AF93BF93F6
:1008B0008091420390914303A0914403B09145037A
:1008C000309146030196A11DB11D232F2D5F2D37B9
:1008D00020F02D570196A11DB11D20934603809352
:1008E000420390934303A0934403B0934503809144
:1008F0003E0390913F03A0914003B09141030196C4
:10090000A11DB11D80933E0390933F03A09340032C
:10091000B0934103BF91AF919F918F913F912F91E0
:100920000F900FBE0F901F9018958FB7F8942091DD
:1009300042033091430340914403509145038FBFDC
:10094000B901CA0108959FB7F89420913E033091F0
:100950003F03409140035091410386B5A89B06C0D8
:100960008F3F21F02F5F3F4F4F4F5F4F9FBF542F5F
:10097000432F322F2227280F311D411D511D82E0A8
:10098000220F331F441F551F8A95D1F7B901CA01A1
:100990000895EF92FF920F931F93CF93DF937B0104
:1009A0008C010E94A304EB010FC00E94A3046C1BE6
:1009B0007D0B83E0683E780738F00894E108F10881
:1009C00001091109C851DC4FE114F10401051105B9
:1009D00061F7DF91CF911F910F91FF90EF900895F4
:1009E000019739F0880F991F880F991F0297019777
:1009F000F1F70895789484B5826084BD84B58160F0
:100A000084BD85B5826085BD85B5816085BDEEE616
:100A1000F0E0808181608083E1E8F0E010828081F5
:100A200082608083808181608083E0E8F0E0808163
:100A300081608083E1EBF0E0808184608083E0EB83
:100A4000F0E0808181608083E1E9F0E08081826074
:100A50008083808181608083E0E9F0E08081816033
:100A60008083E1EAF0E08081826080838081816020
:100A70008083E0EAF0E0808181608083E1E2F1E060
:100A8000808182608083808181608083E0E2F1E008
:100A9000808181608083EAE7F0E0808184608083E8
:100AA0008081826080838081816080838081806892
:100AB00080831092C10008958093000208958633C8
:100AC00008F0865390917B00282F26952695269531
:100AD00030E02170307043E0220F331F4A95E1F778
:100AE000977F922B90937B00877090910002929554
:100AF000990F990F907C982B90937C0080917A00AD
:100B0000806480937A0080917A0086FDFCCF2091EA
:100B1000780030917900932F80E030E0282B392B3A
:100B2000C90108951F93CF93DF93182FEB0161E064
:100B30000E94E606209709F4CAC0CF3FD10509F408
:100B4000C9C0E12FF0E0E154FE4FE491E93009F42F
:100B500066C0EA30B0F4E430F1F1E53040F4E23060
:100B600059F1E33070F5E13009F0AEC020C0E73054
:100B700009F443C0E83008F048C0E63009F0A4C0EA
:100B800034C0ED3009F478C0EE3038F4EB3009F4BD
:100B90005AC0EC3008F066C04CC0E03109F480C0A7
:100BA000E13109F487C0EF3009F08EC06FC084B521
:100BB000806884BDC7BD92C084B5806284BDC8BD55
:100BC0008DC080918000806880938000D0938900E0
:100BD000C093880083C080918000806280938000F1
:100BE000D0938B00C0938A0079C08091B000806858
:100BF0008093B000C093B30071C08091B000806258
:100C00008093B000C093B40069C080919000806868
:100C100080939000D0939900C09398005FC080911A
:100C20009000806280939000D0939B00C0939A00C4
:100C300055C080919000886080939000D0939D0073
:100C4000C0939C004BC08091A00080688093A0005E
:100C50008091A0008F7B8093A000D093A900C093C7
:100C6000A8003CC08091A00080628093A000D09337
:100C7000AB00C093AA0032C08091A000886080932E
:100C8000A000D093AD00C093AC0028C0809120019B
:100C9000806880932001D0932901C09328011EC051
:100CA00080912001806280932001D0932B01C0931A
:100CB0002A0114C080912001886080932001D09384
:100CC0002D01C0932C010AC0C038D1051CF4812F1E
:100CD00060E002C0812F61E00E942B07DF91CF917D
:100CE0001F910895893009F449C08A30A0F48430F6
:100CF00051F1853040F4823079F1833000F5813054
:100D000009F063C026C0873079F1883098F58630C5
:100D100009F05BC025C08D3009F442C08E3028F444
:100D20008B30B1F18C30C0F52DC0803109F442C058
:100D3000813109F445C08F3009F047C037C0809138
:100D400080008F7703C0809180008F7D809380002A
:100D5000089584B58F7702C084B58F7D84BD0895D2
:100D60008091B0008F7703C08091B0008F7D809319
:100D7000B0000895809190008F7707C08091900017
:100D80008F7D03C080919000877F809390000895AD
:100D90008091A0008F7707C08091A0008F7D03C055
:100DA0008091A000877F8093A0000895809120010A
:100DB0008F7703C0809120018F7D8093200108955B
:100DC00080912001877F809320010895EF92FF9208
:100DD000CF93DF9390E0FC01E758FE4F44918D5C88
:100DE0009E4FFC018491882389F190E0880F991F20
:100DF000FC01EB51FF4F25913491D90181509F4F58
:100E0000FC0125913491E22EE7017E01F32EE701EA
:100E1000662349F49FB7F8948C91409584238C9372
:100E2000888184230BC0623059F49FB7F8948C9169
:100E3000242F209582238C938881842B888305C05E
:100E40009FB7F8948C91842B8C939FBFDF91CF91A7
:100E5000FF90EF9008950F931F93DF93CF930F921E
:100E6000CDB7DEB7282F30E0F901E154FE4F849171
:100E7000F901E758FE4F14912D5C3E4FF9010491A2
:100E80000023D9F0882321F069830E9472066981CA
:100E9000E02FF0E0EE0FFF1FE150FF4F859194919E
:100EA000DC019FB7F894662321F48C91109581237F
:100EB00002C08C91812B8C939FBF0F90CF91DF91BB
:100EC0001F910F9108950F931F93282F30E0F90180
:100ED000E154FE4F8491F901E758FE4F04912D5CD7
:100EE0003E4FF9011491112391F0882311F00E94D3
:100EF0007206E12FF0E0EE0FFF1FE75EFE4F8591D7
:100F00009491DC018C91802321E030E011F420E009
:100F100030E0C9011F910F910895FC0184859585EA
:100F2000FC01E05CFF4F208131818E5B9F4FFC0113
:100F300080819181281B390B2F733070C90108956E
:100F4000FC0184859585FC01E05CFF4F4081518167
:100F5000FC01EE5BFF4F208131814217530741F0C6
:100F60000190F081E02DE80FF91F208130E002C0F0
:100F70002FEF3FEFC9010895FC0184859585FC01A1
:100F8000E05CFF4F40815181FC01EE5BFF4F20810F
:100F900031814217530771F0A081B181A80FB91FA9
:100FA0002C918081918101968F73907091838083C1
:100FB00030E002C02FEF3FEFC9010895DC011E961B
:100FC0008D919C911F97FC01E05CFF4F8E5B9F4FC2
:100FD00040815181DC012D913C91119742175307BB
:100FE000B9F70895FC0126853785D901A05CBF4F6C
:100FF0008D919C9101968F739070D901AE5BBF4F1C
:101000004D915C91119784179507D1F3D901A05C9C
:10101000BF4F0D90BC91A02DA20FB31F6C93A6855E
:10102000B785A05CBF4F11969C938E93A689B78914
:101030002C9181E090E0058C02C0880F991F0A94E2
:10104000E2F7282B2C9381E090E00895FB01E05C0F
:10105000FF4F208131812F5F3F4F2F733070DB01B5
:10106000AE5BBF4F4D915C9111972417350739F056
:10107000A081B181A60FB71F8C933183208308957F
:1010800008951F920F920FB60F920BB60F92112474
:101090002F933F934F935F936F937F938F939F9380
:1010A000AF93BF93EF93FF938091C60067E473E023
:1010B0000E942608FF91EF91BF91AF919F918F9170
:1010C0007F916F915F914F913F912F910F900BBE48
:1010D0000F900FBE0F901F90189508951F920F92BA
:1010E0000FB60F920BB60F9211242F933F934F938D
:1010F0005F936F937F938F939F93AF93BF93EF9380
:10110000FF938091CE006FEC73E00E942608FF9160
:10111000EF91BF91AF919F918F917F916F915F916F
:101120004F913F912F910F900BBE0F900FBE0F90DC
:101130001F90189508951F920F920FB60F920BB63D
:101140000F9211242F933F934F935F936F937F934D
:101150008F939F93AF93BF93EF93FF938091D600AC
:1011600067E574E00E942608FF91EF91BF91AF916F
:101170009F918F917F916F915F914F913F912F91AF
:101180000F900BBE0F900FBE0F901F9018950895F3
:101190001F920F920FB60F920BB60F9211242F933E
:1011A0003F934F935F936F937F938F939F93AF93EF
:1011B000BF93EF93FF93809136016FED74E00E942F
:1011C0002608FF91EF91BF91AF919F918F917F91F1
:1011D0006F915F914F913F912F910F900BBE0F90A8
:1011E0000FBE0F901F90189587E695E00E948D071F
:1011F000009711F00E94400886E895E00E948D0754
:10120000009711F00E946D0885EA95E00E948D0715
:10121000009711F00E949A0884EC95E00E948D07D7
:10122000009711F00E94C70808951F920F920FB601
:101230000F920BB60F9211242F933F938F939F938E
:10124000EF93FF932091CB033091CC038091CD039A
:101250009091CE032817390731F48091C1008F7D1A
:101260008093C10014C0E091CD03F091CE03E55707
:10127000FC4F20818091CD039091CE0301968F7316
:1012800090709093CE038093CD032093C600FF917E
:10129000EF919F918F913F912F910F900BBE0F90E7
:1012A0000FBE0F901F9018951F920F920FB60F92BE
:1012B0000BB60F9211242F933F938F939F93EF932D
:1012C000FF932091530430915404809155049091E0
:1012D00056042817390731F48091C9008F7D809317
:1012E000C90014C0E0915504F0915604ED5EFB4F27
:1012F0002081809155049091560401968F739070CF
:1013000090935604809355042093CE00FF91EF9163
:101310009F918F913F912F910F900BBE0F900FBE19
:101320000F901F9018951F920F920FB60F920BB649
:101330000F9211242F933F938F939F93EF93FF93DB
:101340002091DB043091DC048091DD049091DE0477
:101350002817390731F48091D1008F7D8093D10017
:1013600014C0E091DD04F091DE04E556FB4F2081CE
:101370008091DD049091DE0401968F7390709093BC
:10138000DE048093DD042093D600FF91EF919F91BE
:101390008F913F912F910F900BBE0F900FBE0F902A
:1013A0001F9018951F920F920FB60F920BB60F92C7
:1013B00011242F933F938F939F93EF93FF9320914B
:1013C0006305309164058091650590916605281745
:1013D000390731F4809131018F7D8093310114C040
:1013E000E0916505F0916605ED5DFA4F20818091F1
:1013F00065059091660501968F73907090936605D0
:101400008093650520933601FF91EF919F918F9115
:101410003F912F910F900BBE0F900FBE0F901F901A
:101420001895DF92EF92FF920F931F93CF93DF9364
:10143000EC017A018B01DD24D394403081EE580712
:1014400080E0680780E0780749F4DD24EC89FD89B5
:10145000108260E874E88EE190E00FC0EC89FD89AD
:1014600081E090E00E8C02C0880F991F0A94E2F789
:10147000808360E079E08DE390E0A80197010E940D
:10148000BA1A215030404040504056954795379504
:10149000279580E12030380710F0DD20B1F6E8898B
:1014A000F9893083EA89FB892083EE89FF894081AD
:1014B00081E090E09C010A8C02C0220F331F0A9445
:1014C000E2F7422B4083EE89FF8940819C010B8C1F
:1014D00002C0220F331F0A94E2F7422B4083EE89A9
:1014E000FF8940819C010C8C02C0220F331F0A949B
:1014F000E2F7422B4083EE89FF8920810D8C02C0E8
:10150000880F991F0A94E2F7809582238083DF91E8
:10151000CF911F910F91FF90EF90DF9008951F934F
:10152000CF93DF9310926A051092690588EE93E0DD
:10153000A0E0B0E080936B0590936C05A0936D05DF
:10154000B0936E05E9E6F5E026E033E032932293AE
:1015500047E453E0558744874BE853E05787468775
:1015600045EC50E0518B408B44EC50E0538B428B68
:1015700040EC50E0558B448B41EC50E0578B468B50
:1015800046EC50E0518F408F14E0128F73E0738F60
:1015900067E0648F55E0558F41E0468F10928905D2
:1015A0001092880580938A0590938B05A0938C05F3
:1015B000B0938D05E8E8F5E032932293CFECD3E0C9
:1015C000D587C487C3E1D4E0D787C687CDECD0E008
:1015D000D18BC08BCCECD0E0D38BC28BC8ECD0E0ED
:1015E000D58BC48BC9ECD0E0D78BC68BCEECD0E0CA
:1015F000D18FC08F128F738F648F558F468F10924B
:10160000A8051092A7058093A9059093AA05A09319
:10161000AB05B093AC05E7EAF5E032932293C7E55A
:10162000D4E0D587C487CBE9D4E0D787C687C5ED9A
:10163000D0E0D18BC08BC4EDD0E0D38BC28BC0ED9A
:10164000D0E0D58BC48BC1EDD0E0D78BC68BC6ED77
:10165000D0E0D18FC08F128F738F648F558F468FDC
:101660001092C7051092C6058093C8059093C905CE
:10167000A093CA05B093CB05E6ECF5E03293229334
:101680008FED94E09587848783E295E0978786873E
:1016900085E391E0918B808B84E391E0938B828B47
:1016A00080E391E0958B848B81E391E0978B868B2F
:1016B00086E391E0918F808F128F738F648F558FA7
:1016C000468FDF91CF911F9108958F929F92AF9295
:1016D000BF92CF92DF92EF92FF920F931F93CF931F
:1016E000DF934C017B0182E0A82EB12CA80CB91C21
:1016F000C0E0D0E0CC24DD24F50161915F01C70199
:101700004AE050E00E94C40C8C01C7016EE20E94C6
:10171000180C080F191FC00ED11E2196C330D10519
:1017200059F7C701F40165814AE050E00E94C40CFA
:10173000C80ED91EC601DF91CF911F910F91FF9066
:10174000EF90DF90CF90BF90AF909F908F900895D3
:1017500086E193E09093E4058093E3051092E5051C
:101760001092E6051092E7051092E8050895CF92D1
:10177000DF92EF92FF920F931F93CF93DF936C0151
:101780007B018A01C0E0D0E00FC0D7016D917D01DF
:10179000D601ED91FC910190F081E02DC6011995E3
:1017A000C80FD91F015010400115110571F7CE0166
:1017B000DF91CF911F910F91FF90EF90DF90CF902D
:1017C0000895DB010D900020E9F7AD014150504034
:1017D000461B570BDC01ED91FC910280F381E02D5B
:1017E00019950895EF92FF920F931F93CF93DF9374
:1017F0007C01062F172FC0E0D0E0F8010F5F1F4FCC
:101800006491662351F0F701A081B181ED91FC91C3
:10181000C7011995C80FD91FF0CFCE01DF91CF9125
:101820001F910F91FF90EF9008950E94E10B089592
:10183000DC01ED91FC910190F081E02D1995089566
:101840000F931F93CF93DF93EC016DE00E94180C70
:101850008C01CE016AE00E94180C080F191FC80104
:10186000DF91CF911F910F9108950F931F93CF9305
:10187000DF93EC010E94F20B8C01CE010E94200C40
:10188000080F191FC801DF91CF911F910F91089583
:101890000F931F93CF93DF93EC010E94E10B8C0118
:1018A000CE010E94200C080F191FC801DF91CF91B3
:1018B0001F910F9108958F929F92AF92BF92CF92F6
:1018C000DF92EF92FF920F931F93DF93CF93CDB7E9
:1018D000DEB7A1970FB6F894DEBF0FBECDBF6C0187
:1018E000042FE52FCB01122F19A2223008F41AE0A1
:1018F00021E2E22EF12CEC0EFD1E812E9924AA2469
:10190000BB2403C0022FE32FCA01602F7E2FA50145
:1019100094010E94BA1A129F802D1124081B08946A
:10192000E108F1080A3010F4005D01C0095CF7011C
:101930000083211531054105510521F7C601B70185
:101940000E94E10BA1960FB6F894DEBF0FBECDBF8B
:10195000CF91DF911F910F91FF90EF90DF90CF908B
:10196000BF90AF909F908F9008952115310549F455
:10197000DC01ED91FC910190F081E02D642F19952F
:1019800008950E945B0C08959A01462F50E060E094
:1019900070E00E94B50C08950F931F93CF93DF93CF
:1019A000EC019A01462F50E060E070E00E94B50C17
:1019B0008C01CE010E94200C080F191FC801DF9175
:1019C000CF911F910F910895CF93DF93EC010E9467
:1019D0009504688779878A879B87E881F9810680E3
:1019E000F781E02DCE0119959C0197FF15C00E944B
:1019F0009504288539854A855B85621B730B840BAA
:101A0000950B2C813D814E815F816217730784079E
:101A1000950718F32FEF3FEFC901DF91CF9108959C
:101A2000CF92DF92EF92FF920F931F93CF93DF93AA
:101A30006C01EB017A0100E010E008C0C6010E94D1
:101A4000E40C97FD06C089930F5F1F4F0E151F050D
:101A5000A8F3C801DF91CF911F910F91FF90EF90F4
:101A6000DF90CF9008958230B9F0833028F4882336
:101A700051F0813051F50AC0843011F18430E8F022
:101A8000853019F520C010926E00089580916F0086
:101A90008D7F80936F000895809170008D7F80937B
:101AA000700081E08093B0008091B100887F8460F5
:101AB0008093B1001092B3000895109271000895C0
:101AC0001092720008951092730008951F93182FBA
:101AD00080910003811739F4E4EEF0E084919FEFE8
:101AE0009093000301C08FEF0E94330D812F60E0BF
:101AF0000E942B071F9108951F920F920FB60F920D
:101B00000BB60F9211242F933F934F935F936F93D4
:101B10007F938F939F93AF93BF93EF93FF938091A6
:101B2000E9059091EA05A091EB05B091EC050097CD
:101B3000A105B10551F1E091ED05F091EE0580812F
:101B40009091EF05892780838091E9059091EA05BE
:101B5000A091EB05B091EC05181619061A061B06A4
:101B6000C4F48091E9059091EA05A091EB05B0914C
:101B7000EC050197A109B1098093E9059093EA0565
:101B8000A093EB05B093EC0504C0809100030E9484
:101B9000660DFF91EF91BF91AF919F918F917F91D2
:101BA0006F915F914F913F912F910F900BBE0F90CE
:101BB0000FBE0F901F901895CF93DF930E94FA04E9
:101BC0000E949F19C4EFD8E00E946F1A2097E1F39A
:101BD0000E94F408F9CF0E940F1B08950E94A91BD0
:101BE0000895DF93CF930F92CDB7DEB76983DC0101
:101BF000ED91FC910484F585E02DBE016F5F7F4F70
:101C000041E050E019950F90CF91DF91089508952C
:101C1000DF92EF92FF920F931F93DF93CF930F9278
:101C2000CDB7DEB7FC018B01D42E499661E0448D1F
:101C30002D2D352FE12C7DE7F72E59830E948C1432
:101C40008D2D5981952F0F90CF91DF911F910F917D
:101C5000FF90EF90DF9008958F929F92AF92BF9286
:101C6000CF92EF92FF920F931F93490100D00F92F2
:101C7000EDB7FEB712830183F482E38220E806E029
:101C8000EE24CC24C394AA24BB240E949B170F905B
:101C90000F900F900F901F910F91FF90EF90CF90AA
:101CA000BF90AF909F908F9008958F929F92AF9228
:101CB000BF92CF92DF92EF92FF920F934901502F84
:101CC00000D00F92EDB7FEB7F282E182D482C382D8
:101CD00020E806E0E52EE2E0CE2EAA24BB240E94F6
:101CE0009B170F900F900F900F900F91FF90EF9018
:101CF000DF90CF90BF90AF909F908F9008958F927C
:101D00009F92AF92BF92CF92EF920F931F93E22ECA
:101D100000D00F92EDB7FEB71282118214830383B5
:101D200020E009E0CC24AA24BB24882499240E9422
:101D30009B170F900F900F900F901F910F91EF90A6
:101D4000CF90BF90AF909F908F900895CF92DF92E9
:101D5000EF92FF920F931F93CF93DF93EC011B82BF
:101D60001A8288EE93E0A0E0B0E08C839D83AE837E
:101D7000BF838CE193E0998388837D876C875F873D
:101D80004E87398B288B1B8B0A8BFD8AEC8ADF8A66
:101D9000CE8ACE0148960E94D812CE0149960E9462
:101DA0005B141A8EDF91CF911F910F91FF90EF90EE
:101DB000DF90CF90089548960E94DA1368EC70E0A7
:101DC00080E090E00E94C90408950E94DB0E81E04B
:101DD00008958F929F92AF92BF92CF92EF920F93FE
:101DE000DF93CF930F920F92CDB7DEB72FEF3FEF78
:101DF0003A83298300D00F929E012F5F3F4FEDB7AA
:101E0000FEB73283218320E03DE734832383499664
:101E100040E020EC03E3EE24CC24AA24BB24F2E02F
:101E20008F2E912C0E949B170F900F900F900F9068
:101E300089819A810F900F90CF91DF910F91EF9050
:101E4000CF90BF90AF909F908F9008958F929F9268
:101E5000AF92BF92CF92EF920F935A01D9010D909A
:101E60000020E9F74D0100D00F92ADB7BEB7119633
:101E7000821A930AEDB7FEB7218311963C9311970E
:101E800020E03DE713963C932E931297499640E04D
:101E900020E404E3EE24CC240E949B170F900F90C3
:101EA0000F900F900F91EF90CF90BF90AF909F90B9
:101EB0008F9008956F927F928F929F92AF92BF9270
:101EC000CF92EF920F931F93CF93DF93EC01162FD6
:101ED0000E94E90E8130910509F058C087E695E02F
:101EE00067EB73E00E94F20B2C853D85CE01612FDC
:101EF00040E050E00E94260F2E853F85CE01612FE5
:101F000041E050E00E94260F28893989CE01612FD7
:101F100042E050E00E94260F2A893B89CE01612FC2
:101F200043E050E00E94260F2C893D89CE01612FAD
:101F300044E050E00E94260F2E893F89CE01612F98
:101F400045E050E00E94260FA9E16A2E712C6C0E2C
:101F50007D1E00D00F92EDB7FEB71282118280E095
:101F60009DE794838383C301612F40E020E405E370
:101F7000EE24CC24AA24BB24882499240E949B17F5
:101F80000F900F900F900F9068960EC087E695E027
:101F90006FE873E00E94F20B80E00CC0CE010E945B
:101FA0002814C3010E944618C3010E94691482319B
:101FB000A9F781E0DF91CF911F910F91EF90CF9022
:101FC000BF90AF909F908F907F906F9008952F92C9
:101FD0003F924F925F926F927F928F929F92AF92B9
:101FE000BF92CF92DF92EF92FF920F931F93DF93F6
:101FF000CF9300D0CDB7DEB74C01162F3A0129019F
:1020000079E1272E312C280E391E65E5A62EB12C3C
:10201000A80EB91EC101612F40E024E030E000E0CD
:102020007501C12C5DE7D52E0E94550E882329F03D
:1020300087E695E06BE673E02AC0F401E85AFF4FAB
:10204000908180E0F401E95AFF4F2081422F50E057
:10205000482B592B5B834A8381E04130580728F095
:1020600087E695E06EE473E012C0C101612F40E0A5
:102070002A813B8100E07501C12C1DE7D12E0E9411
:10208000550E882339F087E695E061E373E00E94FE
:10209000F20B78C0D3011C92F20110822A803B809F
:1020A00025E530E0220E331E280C391C00E4B0E197
:1020B0008B2E4DC0D5011C9111962C911197243077
:1020C00049F0253071F0223089F587E695E064E229
:1020D00073E004C087E695E064E173E00E94F20BD0
:1020E00034C0F3018081882331F4D50112968C919C
:1020F000129787FD05C0F2018081882331F501C068
:10210000F301309711F1D50112968C9112978F77C8
:10211000808313968C911397818314968D919C9153
:10212000159793838283058386820FC087E695E0A7
:1021300062E073E029830E94F20B87E695E0298133
:10214000622F40E150E00E94CC0CA10EB11CA21401
:10215000B30408F4AFCFF3018081882321F0D201CA
:102160008C91882331F487E695E063EE72E00E945B
:10217000350CF3018081882329F081E0D2019C9104
:10218000992309F480E00F900F900F90CF91DF9189
:102190001F910F91FF90EF90DF90CF90BF90AF9085
:1021A0009F908F907F906F905F904F903F902F9077
:1021B0000895EF92FF920F931F93DF93CF93CDB7C4
:1021C000DEB72E970FB6F894DEBF0FBECDBF8C01E1
:1021D00061E07E010894E11CF11CA7019E01285FCB
:1021E0003F4F0E94E70F882309F475C0C8014D9640
:1021F000FC0188E3DF011D928A95E9F76981862F4A
:1022000090E0FC01B3E0EE0FFF1FBA95E1F7E81B89
:10221000F90BE00FF11F7D96D70187E00D90019239
:102220008150E1F728852617A1F0822F90E0FC016C
:10223000A3E0EE0FFF1FAA95E1F7E81BF90BE00FF3
:10224000F11F7D96DE01189687E00D900192815076
:10225000E1F7F801638F248F87E695E040E150E0D5
:102260000E94CC0C87E695E0688540E150E00E9432
:10227000CC0CE9E1EE2EF12CE00EF11EC70160E07E
:1022800040E00E946F14F8017D96282F392FD90164
:1022900087E00D9001928150E1F7A801435E5F4F06
:1022A000C70161E00E948114C70161E040E021E0C4
:1022B00000E01DE70E947F0E882339F087E695E055
:1022C0006CEC72E00E94F20B06C0C70160E90E944C
:1022D0006C1481E001C080E02E960FB6F894DEBF4A
:1022E0000FBECDBFCF91DF911F910F91FF90EF9067
:1022F0000895CF93DF93EC0148960E942814CE01F5
:1023000049960E944618DF91CF910895CF92DF92AF
:10231000EF92FF920F931F93CF93DF93EC010E94F4
:1023200079118A8D882309F062C08E01075E1F4FE4
:10233000C8010E94691487FF5AC0C8010E9469142D
:10234000803909F454C065E5C62ED12CCC0EDD1EB3
:1023500087E695E066EB72E00E94F20B87E695E077
:1023600067E972E00E94F20BC80161E040E022E1FF
:1023700030E08601E12C5DE7F52E0E942C0E8823CB
:1023800041F087E695E061E672E00E94F20B80E0A2
:1023900025C0F60180859185F8E1813D9F0771F5A3
:1023A000F6018285938580509D428230910530F5FB
:1023B00087E695E062E472E00E94F20BCE010E9493
:1023C000D9108A8F0AC08A8D882331F087E695E07C
:1023D00065E072E00E94350C1A8E8A8DDF91CF91F4
:1023E0001F910F91FF90EF90DF90CF900895CE0155
:1023F00049960E946914823181F7E5CF87E695E01E
:1024000061E172E00E94F20BCE0161E00E945A0F7E
:10241000E4CFEF92FF920F931F93DC018B01FA013F
:102420007901499661E05B964C919F010E941C16D0
:102430001F910F91FF90EF900895CF93DF93FC01D0
:10244000E956FE4F11821082EC01CB56DE4F198205
:102450001882BC016B5A7E4F40E450E021E030E02E
:102460000E9409121816190614F499838883DF91C3
:10247000CF910895CF93DF93EC01DC01AB56BE4FB3
:10248000FC01E956FE4F2D913C911197808191817D
:102490002817390719F4CE010E941D12FE01EB56D0
:1024A000FE4FC956DE4F2081318188819981281BDA
:1024B000390BC901DF91CF910895CF93DF93EC01E0
:1024C000DC01AB56BE4FFC01E956FE4F2D913C910D
:1024D0001197808191812817390719F4CE010E9444
:1024E0001D12FE01E956FE4F80819181FE01EB56DF
:1024F000FE4F208131812817390739F0C80FD91FC5
:10250000CB5ADE4F288130E002C02FEF3FEFC901E8
:10251000DF91CF910895CF93DF93EC01DC01AB56AF
:10252000BE4FFC01E956FE4F2D913C9111978081E1
:1025300091812817390719F4CE010E941D12FE015E
:10254000E956FE4F80819181DE01AB56BE4F2D9141
:102550003C9111972817390751F0C80FD91FCB5A52
:10256000DE4F288130E001969183808302C02FEFF7
:102570003FEFC901DF91CF91089584E361E00E94AC
:10258000E60683E361E00E94E60682E360E00E94E3
:10259000E60685E361E00E94E60685E361E00E94CD
:1025A0002B0780E58CBD81E08DBD8DB58EB508957E
:1025B000CF93DF930E94BD126E98C4E0D1E0888172
:1025C000877F888385E361E00E94E60685E361E01A
:1025D0000E942B07888184608883E5E0F1E0808198
:1025E00084608083DF91CF9108958091F0050895F4
:1025F0000F931F93082F162F85E360E00E942B078F
:1026000002600EBD0DB407FEFDCF1EBD0DB407FE6A
:10261000FDCF85E361E00E942B071F910F91089584
:10262000EF92FF920F931F93DF93CF930F92CDB74B
:10263000DEB7162F790185E360E049830E942B07FE
:1026400012601EBD4981842FF70106C00DB407FE3C
:10265000FDCF91919EBD81508823C1F78701040F62
:10266000111D0DB407FEFDCF85E361E00E942B072D
:10267000C8010F90CF91DF911F910F91FF90EF90C4
:1026800008951F93162F85E360E00E942B071EBD5F
:102690000DB407FEFDCF1EBC0DB407FEFDCF85E3D4
:1026A00061E00E942B078EB51F910895EF92FF9273
:1026B0000F931F93CF93DF93162F042FE90185E328
:1026C00060E00E942B071EBD0DB407FEFDCFFE018A
:1026D000802F07C01EBC81500DB407FEFDCF9EB5F4
:1026E00091938823B9F785E361E00E942B07C00F1F
:1026F000D11DCE01DF91CF911F910F91FF90EF90EF
:1027000008950F931F93CF93DF938C0188E760E2C6
:102710000E94F81288E760E00E94F812C0E0D0E062
:1027200002C0219741F0C80168E60E94411380FF72
:10273000F8CF81E001C080E0DF91CF911F910F9130
:102740000895CF93DF93EC0168EF0E944113807CE2
:10275000803489F0813418F4882319F128C0803836
:1027600019F0803C21F519C0CE0168ED0E9441139B
:1027700081FD07C00CC0CE0168ED0E94411381FDB0
:1027800006C088ED6BEC0E94F81283E007C088ED6C
:1027900069EC0E94F81282E001C081E08093F005AC
:1027A00006C088ED61ED0E94F8121092F005DF91ED
:1027B000CF910895CF93DF93EC0188E86AE10E94FE
:1027C000F812CE010E948113882331F487E695E048
:1027D00061E072E00E94480C88ED61ED0E94F81201
:1027E00080ED60E60E94F81288EE64E00E94F81224
:1027F000CE0168EE0E94411382FFFACFCE010E9403
:10280000A11388EC60E20E94F81280E861E00E9467
:10281000F812DF91CF9108951F93CF93DF93EC01CE
:1028200068EC0E94411385FF05C0CE010E94A113F0
:1028300010E201C010E088EC612F0E94F812812F95
:10284000DF91CF911F91089560EB0E94411308958D
:102850001F93CF93DF93EC01669B0AC010E0809139
:10286000030183FF09C0812FDF91CF911F9108954C
:102870000E940C14182FF3CFCE010E942414F3CF22
:102880001092F3051092F5051092F4051092F605DA
:102890001092F8051092F7051092F9058AEF95E06D
:1028A0009093F2058093F10580E48093FF0580E129
:1028B000809300060895CF93DF93EC010E94D81215
:1028C00081E180930106CE010E944014DF91CF91F7
:1028D000089580910106089560930106089570E0BF
:1028E000FB01EE0FFF1FE60FF71FEF50FA4F20819D
:1028F000318187E0489FA0011124240F351FC901B1
:10290000089570E0FB01EE0FFF1FE60FF71FEF5079
:10291000FA4F5183408308952F923F924F925F92D6
:102920006F927F928F929F92AF92BF92CF92DF92DF
:10293000EF92FF920F931F93DF93CF93CDB7DEB744
:102940002B970FB6F894DEBF0FBECDBFD82EC92E81
:10295000222E832EF886EF82662E772487E0489F0A
:10296000200111247301EE0CFF1CE60CF71C21EF73
:1029700035E0E20EF31ED701ED91FC91E40DF51D5B
:10298000A28049870E949504DC01CB0188579C4EA8
:10299000AF4FBF4F89839A83AB83BC83AA2009F4CE
:1029A000AEC0D701ED91FC91E40DF51D88EE658177
:1029B0000E94F812622D782D7B876A87E02EF12E17
:1029C0002A2C3324498540624D8379C00A851B85B2
:1029D0002016310608F481010E838D2D9C2D60E1B7
:1029E000402F97010E94101388E3602F0E94F81275
:1029F00080EF6D810E94F8128D2D9C2D68EC0E9455
:102A0000411387FFF9CF88EC60E80E94F8128D2D02
:102A10009C2D68EF0E9441135FE0B52EB8228824F8
:102A20009924AA2436C00894811C911CEF81F88552
:102A3000309759F0F0E08F16FDE79F0631F461C042
:102A4000A3942A2D233009F45CC088E360E00E943F
:102A5000F81280E1D7016C910E94F81288E36E8130
:102A60000E94F81280EF6D810E94F8128D2D9C2D2E
:102A700068EC0E94411387FFF9CF88EC60E80E9460
:102A8000F8128D2D9C2D68EF0E9441134FE0B42E5B
:102A9000B822BB2009F44FC00E94950429813A81D5
:102AA0004B815C81621773078407950708F043C068
:102AB0003B2D343009F4B7CF3E3019F5C1CF4A85EC
:102AC0005B854115510509F081CFF301EE0FFF1F22
:102AD000E60DF71DEF50FA4F00811181040D151D11
:102AE0008D2D9C2D68EF0E94411385FF02C080E868
:102AF00001C080E4D80115968C93159702C02EEF83
:102B0000B22E8B2D2B960FB6F894DEBF0FBECDBF25
:102B1000CF91DF911F910F91FF90EF90DF90CF90B9
:102B2000BF90AF909F908F907F906F905F904F90ED
:102B30003F902F900895EA85FB85E01BF10BFB8702
:102B4000EA87E00EF11EBBCF4F925F927F928F9289
:102B50009F92AF92BF92CF92DF92EF92FF920F932C
:102B60001F93DF93CF930F92CDB7DEB7982E892EA8
:102B7000762ED42E590159830E9495047B018C0135
:102B800088E893E1A0E0B0E0E80EF91E0A1F1B1FE1
:102B9000CC2444245524D728598133C080EF6D2D8F
:102BA0000E94F81217C0892D982D68EC0E944113DD
:102BB00087FF10C088EC60E80E94F812892D982DDC
:102BC00068EF0E944113582F5F70543061F05E30FF
:102BD00009F513C00E9495046E157F0580079107C3
:102BE00010F35FEF17C00894411C511CA114B104ED
:102BF00041F04A145B0429F40DC0C3949C2D93301A
:102C000049F059830E94950459816E157F0580070C
:102C1000910720F2852F0F90CF91DF911F910F9197
:102C2000FF90EF90DF90CF90BF90AF909F908F90EC
:102C30007F905F904F9008953F924F925F926F9276
:102C40007F928F929F92AF92BF92CF92DF92EF923C
:102C5000FF920F931F93CF93DF93D82EC92EA42EEC
:102C6000490138012701062F10E087E0489F7001D5
:102C70001124F801EE0FFF1FE00FF11FEF50FA4F84
:102C80000190F081E02DEE0DFF1D328088EE66810F
:102C90000E94F812C0E0D0E08D2D9C2D60E04A2DFE
:102CA00092010E94A415882309F048C08D2D9C2D07
:102CB00068EC0E94411382FF41C08D2D9C2D60E382
:102CC0000E944113B82EC80FD11D8C169D0640F0EE
:102CD0008D2D9C2D68E04B2D93010E9456133C01D5
:102CE00088EC64E00E94F812B31418F0C815D905F6
:102CF00098F28D2D9C2D68EF0E9441139801220FB0
:102D0000331F84FF0CC0020F131F0F501A4FD8013E
:102D1000ED91FC911197EE0DFF1D80E20BC0020FAB
:102D2000131F0F501A4FD801ED91FC911197EE0D22
:102D3000FF1D80E186838C169D0610F4CFEFDFEF38
:102D4000CE01DF91CF911F910F91FF90EF90DF9017
:102D5000CF90BF90AF909F908F907F906F905F903B
:102D60004F903F9008952F923F924F925F926F92B3
:102D70007F928F929F92AF92BF92CF92DF92EF920B
:102D8000FF920F931F93CF93DF93D82EC92E542E0B
:102D9000190148013701C62FD0E087E0489F700134
:102DA0001124FE01EE0FFF1FEC0FFD1FEF50FA4F35
:102DB0000190F081E02DEE0DFF1D428088EE6681CE
:102DC0000E94F81200E010E08D2D9C2D60E0452D52
:102DD00093010E94A415A82E882309F041C08D2DCF
:102DE0009C2D68EC0E94411382FF38C08D2D9C2DD4
:102DF00060E30E944113B82E8D2D9C2D68E04B2D71
:102E000094010E9456134C0188EC64E00E94F81271
:102E1000B41428F00B0D111D02151305A8F28D2D09
:102E20009C2D68EF0E9441139E01220F331F84FFE7
:102E30000AC0C20FD31FCF50DA4FE881F981EE0DDF
:102E4000FF1D80E209C0C20FD31FCF50DA4FE881C7
:102E5000F981EE0DFF1D80E1868302C0B0EFAB2E3D
:102E60008A2DDF91CF911F910F91FF90EF90DF900E
:102E7000CF90BF90AF909F908F907F906F905F901A
:102E80004F903F902F900895CF92DF92EF92FF9254
:102E90000F931F93CF93DF935E2D7601C62FD0E063
:102EA000A42FB0E05523C9F0FE01EE0FFF1FEC0F79
:102EB000FD1FEF50FA4FED0153E0CC0FDD1F5A9587
:102EC000E1F7CA1BDB0B0190F081E02DEC0FFD1F39
:102ED00050E256830E94B31618C0FE01EE0FFF1F8A
:102EE000EC0FFD1FEF50FA4FED0153E0CC0FDD1F4B
:102EF0005A95E1F7CA1BDB0B0190F081E02DEC0F36
:102F0000FD1F50E855830E948C14DF91CF911F91D3
:102F10000F91FF90EF90DF90CF900895562F4423AC
:102F200029F060EA452F0E94A415089560E8452F16
:102F30000E94A41508953F924F925F926F927F92E4
:102F40008F929F92AF92BF92CF92DF92EF92FF92B9
:102F50000F931F93DF93CF93CDB7DEB728970FB6AC
:102F6000F894DEBF0FBECDBF3C01162F342EF22EDB
:102F70004D8C5E8C80EE0E94F812F9820A83EB82FF
:102F8000CC82BE82AD8298868F82C30160E248E027
:102F90009E012F5F3F4F0E941013C30160E1432D3C
:102FA0002F8D38A10E94A415082F882329F087E6C9
:102FB00095E062E272E018C0FF1CFF24FF1C411480
:102FC0005104E1F0C301612F432D94018201EF2CE4
:102FD000C12CEDE7DE2E0E944417082F882371F0E4
:102FE00087E695E067E372E00E94150C87E695E0BE
:102FF000602F40E150E00E94C40C08C0C301632D63
:103000004F2D20E03DE70E948E17082F802F289635
:103010000FB6F894DEBF0FBECDBFCF91DF911F91E9
:103020000F91FF90EF90DF90CF90BF90AF909F9067
:103030008F907F906F905F904F903F9008958F9208
:103040009F92AF92BF92CF92EF920F931F93E22E77
:1030500000D00F92EDB7FEB7128211821483038362
:1030600020E005E0CC24AA24BB24882499240E94D3
:103070009B170F900F900F900F901F910F91EF9053
:10308000CF90BF90AF909F908F900895EF92FF9256
:103090000F931F93DF93CF93CDB7DEB763970FB630
:1030A000F894DEBF0FBECDBF182FE92E0E94F51297
:1030B000813029F0813028F0843000F509C083E1A7
:1030C0001BC080910106807F8031C1F081E114C076
:1030D00080910106807F803189F40E9495046853B5
:1030E0007F4F8F4F9F4F609303067093040680932A
:1030F00005069093060680E2809301065091010632
:103100005034C9F1513440F45032E9F0503369F190
:10311000513109F0BBC011C0503609F468C05037B6
:1031200021F0503509F0B2C049C08091F40590916A
:10313000F505009709F0A0C080C0812F9E2D0E9448
:10314000401482E1A1C0E0900306F09004060091D3
:103150000506109106060E949504E616F706080774
:10316000190708F093C080E38FC088EE61E00E94E9
:10317000F81280E489C0812F9E2D68EE0E944113D1
:1031800080FD84C0812F9E2D68ED0E944113682F21
:10319000686088ED0E94F81280E5809301060E9425
:1031A00095046C5E7F4F8F4F9F4F60930306709323
:1031B0000406809305069093060668C0812F9E2D15
:1031C00068EC0E94411386FF61C0E0900306F09016
:1031D000040600910506109106060E949504E61665
:1031E000F7060807190708F051C080E64DC0E091C6
:1031F000F105F091F20588E090E093838283812FBE
:103200009E2D60E040E028E030E08E010F5F1F4F10
:10321000E12CFDE7FF2E5B8B0E942C0E5B8988233F
:1032200049F4E091F105F091F205888582831382DB
:1032300080E72AC05093020626C02091F105309104
:10324000F2053093F5052093F405812F9E2D60E063
:1032500040E021E000E01DE75B8B0E941F185B89C6
:10326000882329F481E08093070680E803C0509307
:10327000020680EA8093010680910106803731F4CE
:103280008EEF8093020680EA8093010663960FB664
:10329000F894DEBF0FBECDBFCF91DF911F910F918C
:1032A000FF90EF900895CF93DF93EC01842F1D865C
:1032B0001C861B821A82198218821E8A1F8A188E07
:1032C000198E798768874E875F87398B288B61E0F5
:1032D0000E94E606888961E00E94E6061B8A1A8A37
:1032E0001D8A1C8A82E090E09B878A87DF91CF91BC
:1032F0000895EF92FF920F931F93CF93DF93EC010A
:103300007A018B0128853985442737FD4095542F54
:1033100060E67AEE80E090E00E94DC1ACA01B90112
:10332000A80197010E94DC1A2C833D834E835F83A2
:10333000DF91CF911F910F91FF90EF9008950F9320
:103340001F93CF93DF9388E096E00E94E50E87E617
:1033500095E040E855E260E070E00E94110AC1E0AB
:10336000D0E08C2F61E00E94E6062196C930D1059D
:10337000C1F78DE061E00E94E6068AE190E00E94DC
:10338000EB0D8C0164EF71E041E050E022E030E0B1
:103390000E9453190093A3071093A4078AE190E0B9
:1033A0000E94EB0D8C0164EF71E043E050E024E0FB
:1033B00030E00E9453190093A5071093A60780914F
:1033C000A3079091A40744E650E060E070E00E94FB
:1033D00079198091A5079091A60744E650E060E036
:1033E00070E00E947919DF91CF911F910F9108959C
:1033F000DF93CF9300D0CDB7DEB788E096E00E9490
:103400008611882309F042C088E096E00E94861168
:10341000882319F46BE472E002C06AE572E087E683
:1034200095E00E94480C68EC70E080E090E00E941B
:10343000C9044FC08A818F3F19F08B818F3F39F4C7
:1034400087E695E068E772E00E94480C42C087E694
:1034500095E062E872E00E94480C89818093010344
:103460009A819093A1079B819093A207882319F4D6
:103470006CE672E002C060E772E087E695E00E94C9
:10348000480CCE0101960E94EE0D23C0DE0111967C
:10349000EAE2F3E083E001900D928150E1F787E6E4
:1034A00095E06CE872E00E94480C88E096E0BE016E
:1034B0006F5F7F4F43E050E00E94100D87E695E07C
:1034C00065E972E00E94480C89818F3F09F0B2CF14
:1034D000B7CF0F900F900F90CF91DF9108950E947A
:1034E000F81980910103882381F08091A1076091F0
:1034F000A207882331F08FEF90E070E00E94A71AB6
:1035000001C070E08DE00E9492050895CF92DF9295
:10351000EF92FF920F931F9388E096E063EA72E0C8
:1035200040EB52E028EB32E00EEC12E0F2EDEF2E31
:10353000F2E0FF2EE9EECE2EE2E0DE2E0E94A60E95
:103540001F910F91FF90EF90DF90CF90089597FB20
:10355000092E07260AD077FD04D049D006D00020D6
:103560001AF4709561957F4F0895F6F790958195BF
:103570009F4F0895A1E21A2EAA1BBB1BFD010DC08F
:10358000AA1FBB1FEE1FFF1FA217B307E407F50713
:1035900020F0A21BB30BE40BF50B661F771F881FEF
:1035A000991F1A9469F760957095809590959B0185
:1035B000AC01BD01CF01089597FB092E05260ED061
:1035C00057FD04D0D7DF0AD0001C38F45095409541
:1035D000309521953F4F4F4F5F4F0895F6F79095E7
:1035E0008095709561957F4F8F4F9F4F0895AA1BCF
:1035F000BB1B51E107C0AA1FBB1FA617B70710F0DE
:10360000A61BB70B881F991F5A95A9F7809590950F
:10361000BC01CD0108950790F691E02D1994CF9348
:10362000DF938230910510F482E090E0E091A907E9
:10363000F091AA0740E050E020E030E026C0608131
:10364000718168177907E0F06817790781F4828142
:1036500093812115310531F0D90113969C938E93F6
:1036600012972BC09093AA078093A90726C04115F3
:10367000510519F06417750718F4AB01E901DF0172
:103680009F0172816381E72FF62F3097C1F64115B4
:10369000510501F1481B590B4430510580F4129635
:1036A0008D919C911397209719F09B838A8304C076
:1036B0009093AA078093A907FD01329646C0FD01A9
:1036C000E40FF51F819391934250504011965C9303
:1036D0004E933BC02091A7073091A80721153105D3
:1036E00041F42091FC023091FD023093A807209311
:1036F000A7072091FE023091FF022115310541F408
:103700002DB73EB74091FA025091FB02241B350BB6
:10371000E091A707F091A807E217F307A0F42E1B8A
:103720003F0B2817390778F0AC014E5F5F4F241725
:10373000350748F04E0F5F1F5093A8074093A70727
:103740008193919302C0E0E0F0E0CF01DF91CF914F
:103750000895CF93DF93009709F491C0FC0132974D
:10376000138212826091A9077091AA0761157105F1
:1037700081F420813181280F391F8091A707909112
:10378000A8078217930799F5F093A807E093A70776
:1037900076C0DB0180E090E002C0CD01D901AE1718
:1037A000BF0748F412962D913C91139721153105CE
:1037B000A1F7CD0121C0B383A283EF0149915991B3
:1037C0009E01240F351FA217B30779F42D913C9168
:1037D0001197240F351F2E5F3F4F318320831296A0
:1037E0002D913C91139733832283009729F4F09312
:1037F000AA07E093A90743C0DC011396FC93EE935C
:1038000012974D915D91A40FB51FEA17FB0769F45C
:1038100020813181240F351F2E5F3F4FEC0139830A
:103820002883228133813B832A83E0E0F0E002C0D9
:10383000FB01BC01DB0112968D919C9113970097BF
:10384000B9F79B012E5F3F4F8D919C911197820F8D
:10385000931F4091A7075091A8074817590779F47B
:10386000309729F41092AA071092A90702C0138278
:103870001282225030403093A8072093A707DF918F
:08388000CF910895F894FFCFE9
:10388800014572726F723A204F53434F4B49525160
:10389800206661696C656420746F2061737365725A
:1038A80074005365747570207061636B657420656E
:1038B80072726F723A200044617461207061636BA8
:1038C8006574206572726F723A20004E6F742063BF
:1038D8006F6E6E656374656421004E6F2064617459
:1038E8006120696E636F6D696E6721004F4E21001C
:1038F8004F464621203A28004E756C6C206D736740
:1039080021004E6F74206E756C6C210052656164E5
:10391800696E672100446F6E652072656164696E27
:10392800672E00476F6F676C652C20496E632E0009
:1039380044656D6F4B69740044656D6F4B69742005
:1039480041726475696E6F20426F61726400312E36
:103958003000687474703A2F2F7777772E616E6411
:10396800726F69642E636F6D0030303030303030E4
:10397800303132333435363738002000AB07000099
:10398800FF0100000000F207B70B8D07BC07A00776
:10399800DE0700000000650B00000000F10DB70B0A
:0E39A8003A128B125D12070E080EFFFFFF0091
:00000001FF
